{
  "contractName": "Investment",
  "abi": [
    {
      "anonymous": false,
      "inputs": [
        {
          "indexed": false,
          "internalType": "uint256",
          "name": "length",
          "type": "uint256"
        },
        {
          "indexed": false,
          "internalType": "uint256",
          "name": "minApprovers",
          "type": "uint256"
        }
      ],
      "name": "Approved",
      "type": "event"
    },
    {
      "anonymous": false,
      "inputs": [],
      "name": "Declined",
      "type": "event"
    },
    {
      "inputs": [
        {
          "internalType": "uint256",
          "name": "",
          "type": "uint256"
        }
      ],
      "name": "approvers",
      "outputs": [
        {
          "internalType": "address",
          "name": "",
          "type": "address"
        }
      ],
      "stateMutability": "view",
      "type": "function",
      "constant": true
    },
    {
      "inputs": [
        {
          "internalType": "uint256",
          "name": "",
          "type": "uint256"
        }
      ],
      "name": "decliners",
      "outputs": [
        {
          "internalType": "address",
          "name": "",
          "type": "address"
        }
      ],
      "stateMutability": "view",
      "type": "function",
      "constant": true
    },
    {
      "inputs": [],
      "name": "description",
      "outputs": [
        {
          "internalType": "string",
          "name": "",
          "type": "string"
        }
      ],
      "stateMutability": "view",
      "type": "function",
      "constant": true
    },
    {
      "inputs": [],
      "name": "minApproves",
      "outputs": [
        {
          "internalType": "uint256",
          "name": "",
          "type": "uint256"
        }
      ],
      "stateMutability": "view",
      "type": "function",
      "constant": true
    },
    {
      "inputs": [],
      "name": "minDeclines",
      "outputs": [
        {
          "internalType": "uint256",
          "name": "",
          "type": "uint256"
        }
      ],
      "stateMutability": "view",
      "type": "function",
      "constant": true
    },
    {
      "inputs": [],
      "name": "name",
      "outputs": [
        {
          "internalType": "string",
          "name": "",
          "type": "string"
        }
      ],
      "stateMutability": "view",
      "type": "function",
      "constant": true
    },
    {
      "inputs": [],
      "name": "stage",
      "outputs": [
        {
          "internalType": "enum Investment.Stages",
          "name": "",
          "type": "uint8"
        }
      ],
      "stateMutability": "view",
      "type": "function",
      "constant": true
    },
    {
      "inputs": [
        {
          "internalType": "string",
          "name": "_name",
          "type": "string"
        },
        {
          "internalType": "string",
          "name": "_description",
          "type": "string"
        }
      ],
      "name": "init",
      "outputs": [],
      "stateMutability": "nonpayable",
      "type": "function"
    },
    {
      "inputs": [],
      "name": "approve",
      "outputs": [],
      "stateMutability": "nonpayable",
      "type": "function"
    },
    {
      "inputs": [],
      "name": "decline",
      "outputs": [],
      "stateMutability": "nonpayable",
      "type": "function"
    }
  ],
  "bytecode": "0x60806040526000600460006101000a81548160ff02191690836002811115610050577f4e487b7100000000000000000000000000000000000000000000000000000000600052602160045260246000fd5b021790555034801561006157600080fd5b50610f09806100716000396000f3fe608060405234801561001057600080fd5b506004361061009e5760003560e01c80637284e416116100665780637284e41614610123578063ab04010714610141578063c040e6b81461014b578063d3650fb814610169578063d89c38d3146101995761009e565b806306fdde03146100a357806312424e3f146100c157806316548182146100cb578063651a2d2c146100e95780637029144c14610107575b600080fd5b6100ab6101c9565b6040516100b89190610ba4565b60405180910390f35b6100c9610257565b005b6100d3610503565b6040516100e09190610c26565b60405180910390f35b6100f1610509565b6040516100fe9190610c26565b60405180910390f35b610121600480360381019061011c9190610a01565b61050f565b005b61012b610548565b6040516101389190610ba4565b60405180910390f35b6101496105d6565b005b61015361086e565b6040516101609190610b89565b60405180910390f35b610183600480360381019061017e9190610a76565b610881565b6040516101909190610b6e565b60405180910390f35b6101b360048036038101906101ae9190610a76565b6108c0565b6040516101c09190610b6e565b60405180910390f35b600080546101d690610d1a565b80601f016020809104026020016040519081016040528092919081815260200182805461020290610d1a565b801561024f5780601f106102245761010080835404028352916020019161024f565b820191906000526020600020905b81548152906001019060200180831161023257829003601f168201915b505050505081565b60006002811115610291577f4e487b7100000000000000000000000000000000000000000000000000000000600052602160045260246000fd5b600460009054906101000a900460ff1660028111156102d9577f4e487b7100000000000000000000000000000000000000000000000000000000600052602160045260246000fd5b14610319576040517f08c379a000000000000000000000000000000000000000000000000000000000815260040161031090610be6565b60405180910390fd5b600660003373ffffffffffffffffffffffffffffffffffffffff1673ffffffffffffffffffffffffffffffffffffffff16815260200190815260200160002060009054906101000a900460ff16156103a6576040517f08c379a000000000000000000000000000000000000000000000000000000000815260040161039d90610c06565b60405180910390fd5b6005339080600181540180825580915050600190039060005260206000200160009091909190916101000a81548173ffffffffffffffffffffffffffffffffffffffff021916908373ffffffffffffffffffffffffffffffffffffffff1602179055506001600660003373ffffffffffffffffffffffffffffffffffffffff1673ffffffffffffffffffffffffffffffffffffffff16815260200190815260200160002060006101000a81548160ff02191690831515021790555060025460058054905010610501576001600460006101000a81548160ff021916908360028111156104bb577f4e487b7100000000000000000000000000000000000000000000000000000000600052602160045260246000fd5b02179055507f1527ad5e6cfbfe249bfd6f9571cbfee0ce4a12335089fa9c6efeab04fec1f7a36005805490506002546040516104f8929190610c41565b60405180910390a15b565b60035481565b60025481565b8383600091906105209291906108ff565b508181600191906105329291906108ff565b5060036002819055506003808190555050505050565b6001805461055590610d1a565b80601f016020809104026020016040519081016040528092919081815260200182805461058190610d1a565b80156105ce5780601f106105a3576101008083540402835291602001916105ce565b820191906000526020600020905b8154815290600101906020018083116105b157829003601f168201915b505050505081565b60006002811115610610577f4e487b7100000000000000000000000000000000000000000000000000000000600052602160045260246000fd5b600460009054906101000a900460ff166002811115610658577f4e487b7100000000000000000000000000000000000000000000000000000000600052602160045260246000fd5b14610698576040517f08c379a000000000000000000000000000000000000000000000000000000000815260040161068f90610be6565b60405180910390fd5b600860003373ffffffffffffffffffffffffffffffffffffffff1673ffffffffffffffffffffffffffffffffffffffff16815260200190815260200160002060009054906101000a900460ff1615610725576040517f08c379a000000000000000000000000000000000000000000000000000000000815260040161071c90610bc6565b60405180910390fd5b6007339080600181540180825580915050600190039060005260206000200160009091909190916101000a81548173ffffffffffffffffffffffffffffffffffffffff021916908373ffffffffffffffffffffffffffffffffffffffff1602179055506001600860003373ffffffffffffffffffffffffffffffffffffffff1673ffffffffffffffffffffffffffffffffffffffff16815260200190815260200160002060006101000a81548160ff0219169083151502179055506003546007805490501061086c576002600460006101000a81548160ff0219169083600281111561083a577f4e487b7100000000000000000000000000000000000000000000000000000000600052602160045260246000fd5b02179055507fa6edfb0ce6ed7dd54796b7147c718d255f4f01a01d8d8a0d666950df2730ce9560405160405180910390a15b565b600460009054906101000a900460ff1681565b6005818154811061089157600080fd5b906000526020600020016000915054906101000a900473ffffffffffffffffffffffffffffffffffffffff1681565b600781815481106108d057600080fd5b906000526020600020016000915054906101000a900473ffffffffffffffffffffffffffffffffffffffff1681565b82805461090b90610d1a565b90600052602060002090601f01602090048101928261092d5760008555610974565b82601f1061094657803560ff1916838001178555610974565b82800160010185558215610974579182015b82811115610973578235825591602001919060010190610958565b5b5090506109819190610985565b5090565b5b8082111561099e576000816000905550600101610986565b5090565b60008083601f8401126109b457600080fd5b8235905067ffffffffffffffff8111156109cd57600080fd5b6020830191508360018202830111156109e557600080fd5b9250929050565b6000813590506109fb81610ebc565b92915050565b60008060008060408587031215610a1757600080fd5b600085013567ffffffffffffffff811115610a3157600080fd5b610a3d878288016109a2565b9450945050602085013567ffffffffffffffff811115610a5c57600080fd5b610a68878288016109a2565b925092505092959194509250565b600060208284031215610a8857600080fd5b6000610a96848285016109ec565b91505092915050565b610aa881610c86565b82525050565b610ab781610cd5565b82525050565b6000610ac882610c6a565b610ad28185610c75565b9350610ae2818560208601610ce7565b610aeb81610daa565b840191505092915050565b6000610b03602b83610c75565b9150610b0e82610dbb565b604082019050919050565b6000610b26602d83610c75565b9150610b3182610e0a565b604082019050919050565b6000610b49602b83610c75565b9150610b5482610e59565b604082019050919050565b610b6881610ccb565b82525050565b6000602082019050610b836000830184610a9f565b92915050565b6000602082019050610b9e6000830184610aae565b92915050565b60006020820190508181036000830152610bbe8184610abd565b905092915050565b60006020820190508181036000830152610bdf81610af6565b9050919050565b60006020820190508181036000830152610bff81610b19565b9050919050565b60006020820190508181036000830152610c1f81610b3c565b9050919050565b6000602082019050610c3b6000830184610b5f565b92915050565b6000604082019050610c566000830185610b5f565b610c636020830184610b5f565b9392505050565b600081519050919050565b600082825260208201905092915050565b6000610c9182610cab565b9050919050565b6000819050610ca682610ea8565b919050565b600073ffffffffffffffffffffffffffffffffffffffff82169050919050565b6000819050919050565b6000610ce082610c98565b9050919050565b60005b83811015610d05578082015181840152602081019050610cea565b83811115610d14576000848401525b50505050565b60006002820490506001821680610d3257607f821691505b60208210811415610d4657610d45610d7b565b5b50919050565b7f4e487b7100000000000000000000000000000000000000000000000000000000600052602160045260246000fd5b7f4e487b7100000000000000000000000000000000000000000000000000000000600052602260045260246000fd5b6000601f19601f8301169050919050565b7f43616c6c65722068617320616c7265616479206465636c696e6564207468697360008201527f20696e766573746d656e74000000000000000000000000000000000000000000602082015250565b7f496e76616c696420696e766573746d656e742073746167652c206e656564732060008201527f746f2062652070656e64696e6700000000000000000000000000000000000000602082015250565b7f43616c6c65722068617320616c726561647920617070726f766564207468697360008201527f20696e766573746d656e74000000000000000000000000000000000000000000602082015250565b60038110610eb957610eb8610d4c565b5b50565b610ec581610ccb565b8114610ed057600080fd5b5056fea264697066735822122065d4c7912903d233083733422189d78ef2e9e63fc96f85d507c28f51443f6e0264736f6c63430008040033",
  "immutableReferences": {},
  "source": "pragma solidity ^0.8.4;\r\n\r\ncontract Investment {\r\n  enum Stages {\r\n    PENDING,\r\n    APPROVED,\r\n    DECLINED\r\n  }\r\n\r\n  string public name;\r\n  string public description;\r\n  uint public minApproves;\r\n  uint public minDeclines;\r\n  Stages public stage = Stages.PENDING;\r\n\r\n  address[] public approvers;\r\n  mapping(address => bool) hasApproved;\r\n\r\n  address[] public decliners;\r\n  mapping(address => bool) hasDeclined;\r\n\r\n  event Approved(uint length, uint minApprovers);\r\n  event Declined();\r\n\r\n  function init(string calldata _name, string calldata _description) external {\r\n    name = _name;\r\n    description = _description;\r\n    minApproves = 3;\r\n    minDeclines = 3;\r\n  }\r\n\r\n  modifier onlyPending {\r\n    require(stage == Stages.PENDING, \"Invalid investment stage, needs to be pending\");\r\n    _;\r\n  }\r\n\r\n  function approve() external onlyPending {\r\n    require(!hasApproved[msg.sender], \"Caller has already approved this investment\");\r\n\r\n    approvers.push(msg.sender);\r\n    hasApproved[msg.sender] = true;\r\n\r\n    if (approvers.length >= minApproves) {\r\n      stage = Stages.APPROVED;\r\n      emit Approved(approvers.length, minApproves);\r\n    }\r\n  }\r\n\r\n  function decline() external onlyPending {\r\n    require(!hasDeclined[msg.sender], \"Caller has already declined this investment\");\r\n\r\n    decliners.push(msg.sender);\r\n    hasDeclined[msg.sender] = true;\r\n\r\n    if (decliners.length >= minDeclines) {\r\n      stage = Stages.DECLINED;\r\n      emit Declined();\r\n    }\r\n  }\r\n}",
  "sourcePath": "C:/Users/Adrian/Documents/hackmoney-cre/src/contracts/Investment.sol",
  "compiler": {
    "name": "solc",
    "version": "0.8.4+commit.c7e474f2.Emscripten.clang"
  },
  "schemaVersion": "3.4.1",
  "updatedAt": "2021-06-09T12:57:55.327Z",
  "networkType": "ethereum",
  "devdoc": {
    "kind": "dev",
    "methods": {},
    "version": 1
  },
  "userdoc": {
    "kind": "user",
    "methods": {},
    "version": 1
  }
}