{
  "contractName": "InvestmentFactory",
  "abi": [
    {
      "inputs": [
        {
          "internalType": "address",
          "name": "_masterContract",
          "type": "address"
        }
      ],
      "stateMutability": "nonpayable",
      "type": "constructor"
    },
    {
      "anonymous": false,
      "inputs": [
        {
          "indexed": false,
          "internalType": "contract Investment",
          "name": "investment",
          "type": "address"
        }
      ],
      "name": "ChildCreated",
      "type": "event"
    },
    {
      "anonymous": false,
      "inputs": [],
      "name": "ChildRemoved",
      "type": "event"
    },
    {
      "inputs": [
        {
          "internalType": "address",
          "name": "",
          "type": "address"
        }
      ],
      "name": "children",
      "outputs": [
        {
          "internalType": "contract Investment",
          "name": "",
          "type": "address"
        }
      ],
      "stateMutability": "view",
      "type": "function",
      "constant": true
    },
    {
      "inputs": [
        {
          "internalType": "string",
          "name": "_name",
          "type": "string"
        },
        {
          "internalType": "string",
          "name": "_description",
          "type": "string"
        }
      ],
      "name": "createInvestment",
      "outputs": [],
      "stateMutability": "nonpayable",
      "type": "function"
    }
  ],
  "bytecode": "0x608060405234801561001057600080fd5b506040516105f13803806105f18339818101604052810190610032919061008e565b80600160006101000a81548173ffffffffffffffffffffffffffffffffffffffff021916908373ffffffffffffffffffffffffffffffffffffffff16021790555050610100565b600081519050610088816100e9565b92915050565b6000602082840312156100a057600080fd5b60006100ae84828501610079565b91505092915050565b60006100c2826100c9565b9050919050565b600073ffffffffffffffffffffffffffffffffffffffff82169050919050565b6100f2816100b7565b81146100fd57600080fd5b50565b6104e28061010f6000396000f3fe608060405234801561001057600080fd5b50600436106100365760003560e01c80632ed3a27a1461003b578063f0018da714610057575b600080fd5b61005560048036038101906100509190610307565b610087565b005b610071600480360381019061006c91906102de565b6101e2565b60405161007e91906103b8565b60405180910390f35b60006100b4600160009054906101000a900473ffffffffffffffffffffffffffffffffffffffff16610215565b90508073ffffffffffffffffffffffffffffffffffffffff16637029144c868686866040518563ffffffff1660e01b81526004016100f594939291906103d3565b600060405180830381600087803b15801561010f57600080fd5b505af1158015610123573d6000803e3d6000fd5b50505050806000808373ffffffffffffffffffffffffffffffffffffffff1673ffffffffffffffffffffffffffffffffffffffff16815260200190815260200160002060006101000a81548173ffffffffffffffffffffffffffffffffffffffff021916908373ffffffffffffffffffffffffffffffffffffffff1602179055507f7b4b5576882318f3025ede3b4525a692b9a9792674c6bd0f82ce62845374a921816040516101d391906103b8565b60405180910390a15050505050565b60006020528060005260406000206000915054906101000a900473ffffffffffffffffffffffffffffffffffffffff1681565b6000808260601b90506040517f3d602d80600a3d3981f3363d3d373d3d3d363d7300000000000000000000000081528160148201527f5af43d82803e903d91602b57fd5bf3000000000000000000000000000000000060288201526037816000f092505050919050565b60008135905061028e81610495565b92915050565b60008083601f8401126102a657600080fd5b8235905067ffffffffffffffff8111156102bf57600080fd5b6020830191508360018202830111156102d757600080fd5b9250929050565b6000602082840312156102f057600080fd5b60006102fe8482850161027f565b91505092915050565b6000806000806040858703121561031d57600080fd5b600085013567ffffffffffffffff81111561033757600080fd5b61034387828801610294565b9450945050602085013567ffffffffffffffff81111561036257600080fd5b61036e87828801610294565b925092505092959194509250565b61038581610451565b82525050565b6000610397838561040e565b93506103a4838584610475565b6103ad83610484565b840190509392505050565b60006020820190506103cd600083018461037c565b92915050565b600060408201905081810360008301526103ee81868861038b565b9050818103602083015261040381848661038b565b905095945050505050565b600082825260208201905092915050565b600061042a82610431565b9050919050565b600073ffffffffffffffffffffffffffffffffffffffff82169050919050565b600061045c82610463565b9050919050565b600061046e82610431565b9050919050565b82818337600083830152505050565b6000601f19601f8301169050919050565b61049e8161041f565b81146104a957600080fd5b5056fea2646970667358221220445b9623e0fe5eb1ffd873846f5ef29d2b4a7310232d72264c8801005394c8ba64736f6c63430008040033",
  "immutableReferences": {},
  "source": "pragma solidity ^0.8.4;\r\n\r\nimport \"./Investment.sol\";\r\nimport \"./CloneFactory.sol\";\r\n\r\ncontract InvestmentFactory is CloneFactory {\r\n  mapping(address => Investment) public children;\r\n  address private masterContract;\r\n\r\n  event ChildCreated(Investment investment);\r\n  event ChildRemoved();\r\n\r\n  constructor(address _masterContract) {\r\n    masterContract = _masterContract;\r\n  }\r\n\r\n  function createInvestment(string calldata _name, string calldata _description) external {\r\n    Investment investment = Investment(payable (createClone(masterContract)));\r\n    investment.init(_name, _description);\r\n    children[address(investment)] = investment;\r\n    \r\n    emit ChildCreated(investment);\r\n  }\r\n\r\n  function removeChild(address childAddress) private {\r\n    delete children[childAddress];\r\n\r\n    emit ChildRemoved();\r\n  }\r\n}",
  "sourcePath": "C:/Users/Adrian/Documents/hackmoney-cre/src/contracts/InvestmentFactory.sol",
  "compiler": {
    "name": "solc",
    "version": "0.8.4+commit.c7e474f2.Emscripten.clang"
  },
  "schemaVersion": "3.4.1",
  "updatedAt": "2021-06-09T12:57:55.333Z",
  "networkType": "ethereum",
  "devdoc": {
    "kind": "dev",
    "methods": {},
    "version": 1
  },
  "userdoc": {
    "kind": "user",
    "methods": {},
    "version": 1
  }
}