{
  "contractName": "ValidationPool",
  "abi": [
    {
      "inputs": [],
      "stateMutability": "nonpayable",
      "type": "constructor"
    },
    {
      "inputs": [
        {
          "internalType": "address",
          "name": "",
          "type": "address"
        }
      ],
      "name": "activeStakers",
      "outputs": [
        {
          "internalType": "bool",
          "name": "",
          "type": "bool"
        }
      ],
      "stateMutability": "view",
      "type": "function",
      "constant": true
    },
    {
      "inputs": [],
      "name": "owner",
      "outputs": [
        {
          "internalType": "address",
          "name": "",
          "type": "address"
        }
      ],
      "stateMutability": "view",
      "type": "function",
      "constant": true
    },
    {
      "inputs": [
        {
          "internalType": "address",
          "name": "",
          "type": "address"
        }
      ],
      "name": "stakingAmount",
      "outputs": [
        {
          "internalType": "uint256",
          "name": "",
          "type": "uint256"
        }
      ],
      "stateMutability": "view",
      "type": "function",
      "constant": true
    },
    {
      "stateMutability": "payable",
      "type": "receive",
      "payable": true
    },
    {
      "inputs": [
        {
          "internalType": "uint256",
          "name": "amountToWithdraw",
          "type": "uint256"
        }
      ],
      "name": "withdrawFunds",
      "outputs": [],
      "stateMutability": "nonpayable",
      "type": "function"
    }
  ],
  "bytecode": "0x608060405234801561001057600080fd5b50336000806101000a81548173ffffffffffffffffffffffffffffffffffffffff021916908373ffffffffffffffffffffffffffffffffffffffff160217905550610976806100606000396000f3fe6080604052600436106100435760003560e01c8063155dd5ee146101de5780638da5cb5b14610207578063d407c19114610232578063e8f7b1ee1461026f576101d9565b366101d9576000341161008b576040517f08c379a000000000000000000000000000000000000000000000000000000000815260040161008290610704565b60405180910390fd5b60001515600160003373ffffffffffffffffffffffffffffffffffffffff1673ffffffffffffffffffffffffffffffffffffffff16815260200190815260200160002060009054906101000a900460ff16151514156101815760018060003373ffffffffffffffffffffffffffffffffffffffff1673ffffffffffffffffffffffffffffffffffffffff16815260200190815260200160002060006101000a81548160ff0219169083151502179055506000600260003373ffffffffffffffffffffffffffffffffffffffff1673ffffffffffffffffffffffffffffffffffffffff168152602001908152602001600020819055505b34600260003373ffffffffffffffffffffffffffffffffffffffff1673ffffffffffffffffffffffffffffffffffffffff16815260200190815260200160002060008282546101d09190610770565b92505081905550005b600080fd5b3480156101ea57600080fd5b50610205600480360381019061020091906105ef565b6102ac565b005b34801561021357600080fd5b5061021c610540565b60405161022991906106ae565b60405180910390f35b34801561023e57600080fd5b50610259600480360381019061025491906105c6565b610564565b60405161026691906106c9565b60405180910390f35b34801561027b57600080fd5b50610296600480360381019061029191906105c6565b610584565b6040516102a39190610744565b60405180910390f35b60011515600160003373ffffffffffffffffffffffffffffffffffffffff1673ffffffffffffffffffffffffffffffffffffffff16815260200190815260200160002060009054906101000a900460ff1615151461033f576040517f08c379a0000000000000000000000000000000000000000000000000000000008152600401610336906106e4565b60405180910390fd5b600260003373ffffffffffffffffffffffffffffffffffffffff1673ffffffffffffffffffffffffffffffffffffffff168152602001908152602001600020548111156103c1576040517f08c379a00000000000000000000000000000000000000000000000000000000081526004016103b890610724565b60405180910390fd5b6000600260003373ffffffffffffffffffffffffffffffffffffffff1673ffffffffffffffffffffffffffffffffffffffff168152602001908152602001600020549050818161041191906107c6565b600260003373ffffffffffffffffffffffffffffffffffffffff1673ffffffffffffffffffffffffffffffffffffffff168152602001908152602001600020819055506000600260003373ffffffffffffffffffffffffffffffffffffffff1673ffffffffffffffffffffffffffffffffffffffff1681526020019081526020016000205414156104f5576000600160003373ffffffffffffffffffffffffffffffffffffffff1673ffffffffffffffffffffffffffffffffffffffff16815260200190815260200160002060006101000a81548160ff0219169083151502179055505b3373ffffffffffffffffffffffffffffffffffffffff166108fc839081150290604051600060405180830381858888f1935050505015801561053b573d6000803e3d6000fd5b505050565b60008054906101000a900473ffffffffffffffffffffffffffffffffffffffff1681565b60016020528060005260406000206000915054906101000a900460ff1681565b60026020528060005260406000206000915090505481565b6000813590506105ab81610912565b92915050565b6000813590506105c081610929565b92915050565b6000602082840312156105d857600080fd5b60006105e68482850161059c565b91505092915050565b60006020828403121561060157600080fd5b600061060f848285016105b1565b91505092915050565b610621816107fa565b82525050565b6106308161080c565b82525050565b6000610643601d8361075f565b915061064e82610871565b602082019050919050565b600061066660128361075f565b91506106718261089a565b602082019050919050565b6000610689602e8361075f565b9150610694826108c3565b604082019050919050565b6106a881610838565b82525050565b60006020820190506106c36000830184610618565b92915050565b60006020820190506106de6000830184610627565b92915050565b600060208201905081810360008301526106fd81610636565b9050919050565b6000602082019050818103600083015261071d81610659565b9050919050565b6000602082019050818103600083015261073d8161067c565b9050919050565b6000602082019050610759600083018461069f565b92915050565b600082825260208201905092915050565b600061077b82610838565b915061078683610838565b9250827fffffffffffffffffffffffffffffffffffffffffffffffffffffffffffffffff038211156107bb576107ba610842565b5b828201905092915050565b60006107d182610838565b91506107dc83610838565b9250828210156107ef576107ee610842565b5b828203905092915050565b600061080582610818565b9050919050565b60008115159050919050565b600073ffffffffffffffffffffffffffffffffffffffff82169050919050565b6000819050919050565b7f4e487b7100000000000000000000000000000000000000000000000000000000600052601160045260246000fd5b7f596f7520617265206e6f742063757272656e746c79207374616b696e67000000600082015250565b7f416d6f756e742063616e6e6f7420626520300000000000000000000000000000600082015250565b7f596f752061726520747279696e6720746f207769746864726177206d6f72652060008201527f7468616e206465706f7369746564000000000000000000000000000000000000602082015250565b61091b816107fa565b811461092657600080fd5b50565b61093281610838565b811461093d57600080fd5b5056fea2646970667358221220dc3d54f6a833ad08af0c7324bbca0082b318d27d0fe8f35e1ace6685a102561664736f6c63430008040033",
  "immutableReferences": {},
  "source": "pragma solidity ^0.8.4;\r\n\r\ncontract ValidationPool {\r\n  address public owner;\r\n  mapping(address => bool) public activeStakers;\r\n  mapping(address => uint) public stakingAmount;\r\n\r\n  constructor() {\r\n    owner = msg.sender;\r\n  }\r\n\r\n  receive() external payable {\r\n    require(msg.value > 0, \"Amount cannot be 0\");\r\n\r\n    if (activeStakers[msg.sender] == false) {\r\n      activeStakers[msg.sender] = true;\r\n      stakingAmount[msg.sender] = 0;\r\n    }\r\n\r\n    stakingAmount[msg.sender] += msg.value;\r\n  }\r\n\r\n  function withdrawFunds(uint amountToWithdraw) external {\r\n    require(activeStakers[msg.sender] == true, \"You are not currently staking\");\r\n    require(amountToWithdraw <= stakingAmount[msg.sender], \"You are trying to withdraw more than deposited\");\r\n\r\n    uint currentAmount = stakingAmount[msg.sender];\r\n    stakingAmount[msg.sender] = currentAmount - amountToWithdraw;\r\n\r\n    if (stakingAmount[msg.sender] == 0) {\r\n      activeStakers[msg.sender] = false;\r\n    }\r\n\r\n    payable(msg.sender).transfer(amountToWithdraw);\r\n  }\r\n}",
  "sourcePath": "C:/Users/Adrian/Documents/hackmoney-cre/src/contracts/ValidationPool.sol",
  "compiler": {
    "name": "solc",
    "version": "0.8.4+commit.c7e474f2.Emscripten.clang"
  },
  "schemaVersion": "3.4.1",
  "updatedAt": "2021-06-09T12:57:55.323Z",
  "networkType": "ethereum",
  "devdoc": {
    "kind": "dev",
    "methods": {},
    "version": 1
  },
  "userdoc": {
    "kind": "user",
    "methods": {},
    "version": 1
  }
}